{
  "_format": "hh-sol-artifact-1",
  "contractName": "DecentraSign",
  "sourceName": "contracts/DecentraSign.sol",
  "abi": [
    {
      "inputs": [],
      "stateMutability": "nonpayable",
      "type": "constructor"
    },
    {
      "anonymous": false,
      "inputs": [
        {
          "indexed": true,
          "internalType": "address",
          "name": "owner",
          "type": "address"
        },
        {
          "indexed": true,
          "internalType": "address",
          "name": "approved",
          "type": "address"
        },
        {
          "indexed": true,
          "internalType": "uint256",
          "name": "tokenId",
          "type": "uint256"
        }
      ],
      "name": "Approval",
      "type": "event"
    },
    {
      "anonymous": false,
      "inputs": [
        {
          "indexed": true,
          "internalType": "address",
          "name": "owner",
          "type": "address"
        },
        {
          "indexed": true,
          "internalType": "address",
          "name": "operator",
          "type": "address"
        },
        {
          "indexed": false,
          "internalType": "bool",
          "name": "approved",
          "type": "bool"
        }
      ],
      "name": "ApprovalForAll",
      "type": "event"
    },
    {
      "anonymous": false,
      "inputs": [
        {
          "indexed": false,
          "internalType": "address",
          "name": "signer",
          "type": "address"
        },
        {
          "indexed": false,
          "internalType": "bytes",
          "name": "documentHash",
          "type": "bytes"
        },
        {
          "indexed": false,
          "internalType": "uint256",
          "name": "timestamp",
          "type": "uint256"
        }
      ],
      "name": "DocumentSigned",
      "type": "event"
    },
    {
      "anonymous": false,
      "inputs": [
        {
          "indexed": true,
          "internalType": "address",
          "name": "previousOwner",
          "type": "address"
        },
        {
          "indexed": true,
          "internalType": "address",
          "name": "newOwner",
          "type": "address"
        }
      ],
      "name": "OwnershipTransferred",
      "type": "event"
    },
    {
      "anonymous": false,
      "inputs": [
        {
          "indexed": true,
          "internalType": "address",
          "name": "from",
          "type": "address"
        },
        {
          "indexed": true,
          "internalType": "address",
          "name": "to",
          "type": "address"
        },
        {
          "indexed": true,
          "internalType": "uint256",
          "name": "tokenId",
          "type": "uint256"
        }
      ],
      "name": "Transfer",
      "type": "event"
    },
    {
      "inputs": [],
      "name": "aggregateDocumentsByUser",
      "outputs": [
        {
          "components": [
            {
              "internalType": "string",
              "name": "name",
              "type": "string"
            },
            {
              "internalType": "address",
              "name": "signer",
              "type": "address"
            },
            {
              "internalType": "bytes",
              "name": "documentHash",
              "type": "bytes"
            },
            {
              "internalType": "uint256",
              "name": "tokenId",
              "type": "uint256"
            },
            {
              "internalType": "string",
              "name": "uri",
              "type": "string"
            },
            {
              "internalType": "bool",
              "name": "isValid",
              "type": "bool"
            },
            {
              "internalType": "string",
              "name": "signature",
              "type": "string"
            },
            {
              "internalType": "uint256",
              "name": "signedAt",
              "type": "uint256"
            }
          ],
          "internalType": "struct DecentraSign.SignedDocument[]",
          "name": "",
          "type": "tuple[]"
        }
      ],
      "stateMutability": "view",
      "type": "function"
    },
    {
      "inputs": [
        {
          "internalType": "address",
          "name": "to",
          "type": "address"
        },
        {
          "internalType": "uint256",
          "name": "tokenId",
          "type": "uint256"
        }
      ],
      "name": "approve",
      "outputs": [],
      "stateMutability": "nonpayable",
      "type": "function"
    },
    {
      "inputs": [
        {
          "internalType": "address",
          "name": "owner",
          "type": "address"
        }
      ],
      "name": "balanceOf",
      "outputs": [
        {
          "internalType": "uint256",
          "name": "",
          "type": "uint256"
        }
      ],
      "stateMutability": "view",
      "type": "function"
    },
    {
      "inputs": [
        {
          "internalType": "uint256",
          "name": "tokenId",
          "type": "uint256"
        }
      ],
      "name": "burn",
      "outputs": [],
      "stateMutability": "nonpayable",
      "type": "function"
    },
    {
      "inputs": [
        {
          "internalType": "bytes",
          "name": "_bytes",
          "type": "bytes"
        }
      ],
      "name": "convertToString",
      "outputs": [
        {
          "internalType": "string",
          "name": "",
          "type": "string"
        }
      ],
      "stateMutability": "pure",
      "type": "function"
    },
    {
      "inputs": [
        {
          "internalType": "string",
          "name": "_name",
          "type": "string"
        },
        {
          "internalType": "string",
          "name": "_email",
          "type": "string"
        }
      ],
      "name": "createUser",
      "outputs": [],
      "stateMutability": "nonpayable",
      "type": "function"
    },
    {
      "inputs": [
        {
          "internalType": "uint256",
          "name": "tokenId",
          "type": "uint256"
        }
      ],
      "name": "getApproved",
      "outputs": [
        {
          "internalType": "address",
          "name": "",
          "type": "address"
        }
      ],
      "stateMutability": "view",
      "type": "function"
    },
    {
      "inputs": [
        {
          "internalType": "bytes",
          "name": "_hash",
          "type": "bytes"
        }
      ],
      "name": "getDocumentByHash",
      "outputs": [
        {
          "components": [
            {
              "internalType": "string",
              "name": "name",
              "type": "string"
            },
            {
              "internalType": "address",
              "name": "signer",
              "type": "address"
            },
            {
              "internalType": "bytes",
              "name": "documentHash",
              "type": "bytes"
            },
            {
              "internalType": "uint256",
              "name": "tokenId",
              "type": "uint256"
            },
            {
              "internalType": "string",
              "name": "uri",
              "type": "string"
            },
            {
              "internalType": "bool",
              "name": "isValid",
              "type": "bool"
            },
            {
              "internalType": "string",
              "name": "signature",
              "type": "string"
            },
            {
              "internalType": "uint256",
              "name": "signedAt",
              "type": "uint256"
            }
          ],
          "internalType": "struct DecentraSign.SignedDocument",
          "name": "",
          "type": "tuple"
        }
      ],
      "stateMutability": "view",
      "type": "function"
    },
    {
      "inputs": [],
      "name": "getUsage",
      "outputs": [
        {
          "internalType": "uint256[2]",
          "name": "",
          "type": "uint256[2]"
        }
      ],
      "stateMutability": "view",
      "type": "function"
    },
    {
      "inputs": [],
      "name": "getUser",
      "outputs": [
        {
          "components": [
            {
              "internalType": "address",
              "name": "_addr",
              "type": "address"
            },
            {
              "internalType": "string",
              "name": "name",
              "type": "string"
            },
            {
              "internalType": "string",
              "name": "email",
              "type": "string"
            },
            {
              "internalType": "uint256",
              "name": "signedDocuments",
              "type": "uint256"
            },
            {
              "internalType": "uint256",
              "name": "quota",
              "type": "uint256"
            },
            {
              "internalType": "bool",
              "name": "isValid",
              "type": "bool"
            },
            {
              "internalType": "uint256",
              "name": "lastPaymentTime",
              "type": "uint256"
            }
          ],
          "internalType": "struct DecentraSign.User",
          "name": "",
          "type": "tuple"
        }
      ],
      "stateMutability": "view",
      "type": "function"
    },
    {
      "inputs": [
        {
          "internalType": "address",
          "name": "owner",
          "type": "address"
        },
        {
          "internalType": "address",
          "name": "operator",
          "type": "address"
        }
      ],
      "name": "isApprovedForAll",
      "outputs": [
        {
          "internalType": "bool",
          "name": "",
          "type": "bool"
        }
      ],
      "stateMutability": "view",
      "type": "function"
    },
    {
      "inputs": [],
      "name": "name",
      "outputs": [
        {
          "internalType": "string",
          "name": "",
          "type": "string"
        }
      ],
      "stateMutability": "view",
      "type": "function"
    },
    {
      "inputs": [],
      "name": "owner",
      "outputs": [
        {
          "internalType": "address",
          "name": "",
          "type": "address"
        }
      ],
      "stateMutability": "view",
      "type": "function"
    },
    {
      "inputs": [
        {
          "internalType": "uint256",
          "name": "tokenId",
          "type": "uint256"
        }
      ],
      "name": "ownerOf",
      "outputs": [
        {
          "internalType": "address",
          "name": "",
          "type": "address"
        }
      ],
      "stateMutability": "view",
      "type": "function"
    },
    {
      "inputs": [],
      "name": "payForUsage",
      "outputs": [],
      "stateMutability": "payable",
      "type": "function"
    },
    {
      "inputs": [],
      "name": "renounceOwnership",
      "outputs": [],
      "stateMutability": "nonpayable",
      "type": "function"
    },
    {
      "inputs": [
        {
          "internalType": "address",
          "name": "to",
          "type": "address"
        },
        {
          "internalType": "string",
          "name": "uri",
          "type": "string"
        }
      ],
      "name": "safeMint",
      "outputs": [],
      "stateMutability": "nonpayable",
      "type": "function"
    },
    {
      "inputs": [
        {
          "internalType": "address",
          "name": "from",
          "type": "address"
        },
        {
          "internalType": "address",
          "name": "to",
          "type": "address"
        },
        {
          "internalType": "uint256",
          "name": "tokenId",
          "type": "uint256"
        }
      ],
      "name": "safeTransferFrom",
      "outputs": [],
      "stateMutability": "nonpayable",
      "type": "function"
    },
    {
      "inputs": [
        {
          "internalType": "address",
          "name": "from",
          "type": "address"
        },
        {
          "internalType": "address",
          "name": "to",
          "type": "address"
        },
        {
          "internalType": "uint256",
          "name": "tokenId",
          "type": "uint256"
        },
        {
          "internalType": "bytes",
          "name": "data",
          "type": "bytes"
        }
      ],
      "name": "safeTransferFrom",
      "outputs": [],
      "stateMutability": "nonpayable",
      "type": "function"
    },
    {
      "inputs": [
        {
          "internalType": "address",
          "name": "operator",
          "type": "address"
        },
        {
          "internalType": "bool",
          "name": "approved",
          "type": "bool"
        }
      ],
      "name": "setApprovalForAll",
      "outputs": [],
      "stateMutability": "nonpayable",
      "type": "function"
    },
    {
      "inputs": [
        {
          "internalType": "string",
          "name": "_name",
          "type": "string"
        },
        {
          "internalType": "string",
          "name": "_documentHash",
          "type": "string"
        },
        {
          "internalType": "string",
          "name": "_uri",
          "type": "string"
        },
        {
          "internalType": "string",
          "name": "_signature",
          "type": "string"
        }
      ],
      "name": "signDocument",
      "outputs": [],
      "stateMutability": "nonpayable",
      "type": "function"
    },
    {
      "inputs": [
        {
          "internalType": "bytes4",
          "name": "interfaceId",
          "type": "bytes4"
        }
      ],
      "name": "supportsInterface",
      "outputs": [
        {
          "internalType": "bool",
          "name": "",
          "type": "bool"
        }
      ],
      "stateMutability": "view",
      "type": "function"
    },
    {
      "inputs": [],
      "name": "symbol",
      "outputs": [
        {
          "internalType": "string",
          "name": "",
          "type": "string"
        }
      ],
      "stateMutability": "view",
      "type": "function"
    },
    {
      "inputs": [
        {
          "internalType": "uint256",
          "name": "tokenId",
          "type": "uint256"
        }
      ],
      "name": "tokenURI",
      "outputs": [
        {
          "internalType": "string",
          "name": "",
          "type": "string"
        }
      ],
      "stateMutability": "view",
      "type": "function"
    },
    {
      "inputs": [
        {
          "internalType": "address",
          "name": "from",
          "type": "address"
        },
        {
          "internalType": "address",
          "name": "to",
          "type": "address"
        },
        {
          "internalType": "uint256",
          "name": "tokenId",
          "type": "uint256"
        }
      ],
      "name": "transferFrom",
      "outputs": [],
      "stateMutability": "nonpayable",
      "type": "function"
    },
    {
      "inputs": [
        {
          "internalType": "address",
          "name": "newOwner",
          "type": "address"
        }
      ],
      "name": "transferOwnership",
      "outputs": [],
      "stateMutability": "nonpayable",
      "type": "function"
    },
    {
      "inputs": [],
      "name": "transferToOwner",
      "outputs": [],
      "stateMutability": "nonpayable",
      "type": "function"
    },
    {
      "inputs": [
        {
          "internalType": "string",
          "name": "_sentHash",
          "type": "string"
        }
      ],
      "name": "verifyDocumentSignature",
      "outputs": [
        {
          "components": [
            {
              "components": [
                {
                  "internalType": "string",
                  "name": "name",
                  "type": "string"
                },
                {
                  "internalType": "address",
                  "name": "signer",
                  "type": "address"
                },
                {
                  "internalType": "bytes",
                  "name": "documentHash",
                  "type": "bytes"
                },
                {
                  "internalType": "uint256",
                  "name": "tokenId",
                  "type": "uint256"
                },
                {
                  "internalType": "string",
                  "name": "uri",
                  "type": "string"
                },
                {
                  "internalType": "bool",
                  "name": "isValid",
                  "type": "bool"
                },
                {
                  "internalType": "string",
                  "name": "signature",
                  "type": "string"
                },
                {
                  "internalType": "uint256",
                  "name": "signedAt",
                  "type": "uint256"
                }
              ],
              "internalType": "struct DecentraSign.SignedDocument",
              "name": "doc",
              "type": "tuple"
            },
            {
              "internalType": "bool",
              "name": "isVerified",
              "type": "bool"
            }
          ],
          "internalType": "struct DecentraSign.VerificationResponse",
          "name": "",
          "type": "tuple"
        }
      ],
      "stateMutability": "view",
      "type": "function"
    }
  ],
  "bytecode": "0x60806040523480156200001157600080fd5b506040518060400160405280600c81526020017f446563656e7472615369676e00000000000000000000000000000000000000008152506040518060400160405280600381526020017f444353000000000000000000000000000000000000000000000000000000000081525081600090816200008f919062000412565b508060019081620000a1919062000412565b505050620000c4620000b8620000ca60201b60201c565b620000d260201b60201c565b620004f9565b600033905090565b6000600760009054906101000a900473ffffffffffffffffffffffffffffffffffffffff16905081600760006101000a81548173ffffffffffffffffffffffffffffffffffffffff021916908373ffffffffffffffffffffffffffffffffffffffff1602179055508173ffffffffffffffffffffffffffffffffffffffff168173ffffffffffffffffffffffffffffffffffffffff167f8be0079c531659141344cd1fd0a4f28419497f9722a3daafe3b4186f6b6457e060405160405180910390a35050565b600081519050919050565b7f4e487b7100000000000000000000000000000000000000000000000000000000600052604160045260246000fd5b7f4e487b7100000000000000000000000000000000000000000000000000000000600052602260045260246000fd5b600060028204905060018216806200021a57607f821691505b60208210810362000230576200022f620001d2565b5b50919050565b60008190508160005260206000209050919050565b60006020601f8301049050919050565b600082821b905092915050565b6000600883026200029a7fffffffffffffffffffffffffffffffffffffffffffffffffffffffffffffffff826200025b565b620002a686836200025b565b95508019841693508086168417925050509392505050565b6000819050919050565b6000819050919050565b6000620002f3620002ed620002e784620002be565b620002c8565b620002be565b9050919050565b6000819050919050565b6200030f83620002d2565b620003276200031e82620002fa565b84845462000268565b825550505050565b600090565b6200033e6200032f565b6200034b81848462000304565b505050565b5b8181101562000373576200036760008262000334565b60018101905062000351565b5050565b601f821115620003c2576200038c8162000236565b62000397846200024b565b81016020851015620003a7578190505b620003bf620003b6856200024b565b83018262000350565b50505b505050565b600082821c905092915050565b6000620003e760001984600802620003c7565b1980831691505092915050565b6000620004028383620003d4565b9150826002028217905092915050565b6200041d8262000198565b67ffffffffffffffff811115620004395762000438620001a3565b5b62000445825462000201565b6200045282828562000377565b600060209050601f8311600181146200048a576000841562000475578287015190505b620004818582620003f4565b865550620004f1565b601f1984166200049a8662000236565b60005b82811015620004c4578489015182556001820191506020850194506020810190506200049d565b86831015620004e45784890151620004e0601f891682620003d4565b8355505b6001600288020188555050505b505050505050565b61584380620005096000396000f3fe6080604052600436106101b75760003560e01c80638da5cb5b116100ec578063d204c45e1161008a578063dedb6fc911610064578063dedb6fc9146105e7578063e985e9c514610612578063f2fde38b1461064f578063fc42554b14610678576101b7565b8063d204c45e1461058b578063d847b4ca146105b4578063db1ab7dc146105dd576101b7565b8063b7f5b934116100c6578063b7f5b934146104ab578063b88d4fde146104e8578063c415433014610511578063c87b56dd1461054e576101b7565b80638da5cb5b1461042c57806395d89b4114610457578063a22cb46514610482576101b7565b806342966c6811610159578063715018a611610133578063715018a6146103965780637a08a45a146103ad578063832880e7146103d857806387b162b514610403576101b7565b806342966c68146102f35780636352211e1461031c57806370a0823114610359576101b7565b8063095ea7b311610195578063095ea7b31461026157806323b872dd1461028a5780632d90ae94146102b357806342842e0e146102ca576101b7565b806301ffc9a7146101bc57806306fdde03146101f9578063081812fc14610224575b600080fd5b3480156101c857600080fd5b506101e360048036038101906101de9190613b74565b6106b5565b6040516101f09190613bbc565b60405180910390f35b34801561020557600080fd5b5061020e610797565b60405161021b9190613c67565b60405180910390f35b34801561023057600080fd5b5061024b60048036038101906102469190613cbf565b610829565b6040516102589190613d2d565b60405180910390f35b34801561026d57600080fd5b5061028860048036038101906102839190613d74565b61086f565b005b34801561029657600080fd5b506102b160048036038101906102ac9190613db4565b610986565b005b3480156102bf57600080fd5b506102c86109e6565b005b3480156102d657600080fd5b506102f160048036038101906102ec9190613db4565b610aa5565b005b3480156102ff57600080fd5b5061031a60048036038101906103159190613cbf565b610ac5565b005b34801561032857600080fd5b50610343600480360381019061033e9190613cbf565b610b21565b6040516103509190613d2d565b60405180910390f35b34801561036557600080fd5b50610380600480360381019061037b9190613e07565b610ba7565b60405161038d9190613e43565b60405180910390f35b3480156103a257600080fd5b506103ab610c5e565b005b3480156103b957600080fd5b506103c2610c72565b6040516103cf9190613f09565b60405180910390f35b3480156103e457600080fd5b506103ed610d89565b6040516103fa919061402f565b60405180910390f35b34801561040f57600080fd5b5061042a60048036038101906104259190614186565b610fec565b005b34801561043857600080fd5b50610441611194565b60405161044e9190613d2d565b60405180910390f35b34801561046357600080fd5b5061046c6111be565b6040516104799190613c67565b60405180910390f35b34801561048e57600080fd5b506104a960048036038101906104a4919061422a565b611250565b005b3480156104b757600080fd5b506104d260048036038101906104cd919061426a565b611266565b6040516104df919061440a565b60405180910390f35b3480156104f457600080fd5b5061050f600480360381019061050a91906144cd565b6115ba565b005b34801561051d57600080fd5b5061053860048036038101906105339190614550565b61161c565b6040516105459190613c67565b60405180910390f35b34801561055a57600080fd5b5061057560048036038101906105709190613cbf565b611626565b6040516105829190613c67565b60405180910390f35b34801561059757600080fd5b506105b260048036038101906105ad9190614599565b611638565b005b3480156105c057600080fd5b506105db60048036038101906105d691906145f5565b6116c2565b005b6105e5611a9c565b005b3480156105f357600080fd5b506105fc611bac565b604051610609919061478e565b60405180910390f35b34801561061e57600080fd5b50610639600480360381019061063491906147b0565b611f6f565b6040516106469190613bbc565b60405180910390f35b34801561065b57600080fd5b5061067660048036038101906106719190613e07565b612003565b005b34801561068457600080fd5b5061069f600480360381019061069a9190614550565b612086565b6040516106ac91906148b5565b60405180910390f35b60007f80ac58cd000000000000000000000000000000000000000000000000000000007bffffffffffffffffffffffffffffffffffffffffffffffffffffffff1916827bffffffffffffffffffffffffffffffffffffffffffffffffffffffff1916148061078057507f5b5e139f000000000000000000000000000000000000000000000000000000007bffffffffffffffffffffffffffffffffffffffffffffffffffffffff1916827bffffffffffffffffffffffffffffffffffffffffffffffffffffffff1916145b80610790575061078f826123e5565b5b9050919050565b6060600080546107a690614906565b80601f01602080910402602001604051908101604052809291908181526020018280546107d290614906565b801561081f5780601f106107f45761010080835404028352916020019161081f565b820191906000526020600020905b81548152906001019060200180831161080257829003601f168201915b5050505050905090565b60006108348261244f565b6004600083815260200190815260200160002060009054906101000a900473ffffffffffffffffffffffffffffffffffffffff169050919050565b600061087a82610b21565b90508073ffffffffffffffffffffffffffffffffffffffff168373ffffffffffffffffffffffffffffffffffffffff16036108ea576040517f08c379a00000000000000000000000000000000000000000000000000000000081526004016108e1906149a9565b60405180910390fd5b8073ffffffffffffffffffffffffffffffffffffffff1661090961249a565b73ffffffffffffffffffffffffffffffffffffffff16148061093857506109378161093261249a565b611f6f565b5b610977576040517f08c379a000000000000000000000000000000000000000000000000000000000815260040161096e90614a3b565b60405180910390fd5b61098183836124a2565b505050565b61099761099161249a565b8261255b565b6109d6576040517f08c379a00000000000000000000000000000000000000000000000000000000081526004016109cd90614acd565b60405180910390fd5b6109e18383836125f0565b505050565b6109ee6128e9565b3073ffffffffffffffffffffffffffffffffffffffff16638da5cb5b6040518163ffffffff1660e01b8152600401602060405180830381865afa158015610a39573d6000803e3d6000fd5b505050506040513d601f19601f82011682018060405250810190610a5d9190614b02565b73ffffffffffffffffffffffffffffffffffffffff166108fc479081150290604051600060405180830381858888f19350505050158015610aa2573d6000803e3d6000fd5b50565b610ac0838383604051806020016040528060008152506115ba565b505050565b610ad6610ad061249a565b8261255b565b610b15576040517f08c379a0000000000000000000000000000000000000000000000000000000008152600401610b0c90614acd565b60405180910390fd5b610b1e81612967565b50565b600080610b2d83612973565b9050600073ffffffffffffffffffffffffffffffffffffffff168173ffffffffffffffffffffffffffffffffffffffff1603610b9e576040517f08c379a0000000000000000000000000000000000000000000000000000000008152600401610b9590614b7b565b60405180910390fd5b80915050919050565b60008073ffffffffffffffffffffffffffffffffffffffff168273ffffffffffffffffffffffffffffffffffffffff1603610c17576040517f08c379a0000000000000000000000000000000000000000000000000000000008152600401610c0e90614c0d565b60405180910390fd5b600360008373ffffffffffffffffffffffffffffffffffffffff1673ffffffffffffffffffffffffffffffffffffffff168152602001908152602001600020549050919050565b610c666128e9565b610c7060006129b0565b565b610c7a6139b5565b600a60003373ffffffffffffffffffffffffffffffffffffffff1673ffffffffffffffffffffffffffffffffffffffff16815260200190815260200160002060050160009054906101000a900460ff16610cd357600080fd5b6000600a60003373ffffffffffffffffffffffffffffffffffffffff1673ffffffffffffffffffffffffffffffffffffffff1681526020019081526020016000206003015466038d7ea4c68000610d2a9190614c5c565b90506040518060400160405280600a60003373ffffffffffffffffffffffffffffffffffffffff1673ffffffffffffffffffffffffffffffffffffffff1681526020019081526020016000206003015481526020018281525091505090565b610d916139d7565b600a60003373ffffffffffffffffffffffffffffffffffffffff1673ffffffffffffffffffffffffffffffffffffffff16815260200190815260200160002060050160009054906101000a900460ff16610dea57600080fd5b600a60003373ffffffffffffffffffffffffffffffffffffffff1673ffffffffffffffffffffffffffffffffffffffff1681526020019081526020016000206040518060e00160405290816000820160009054906101000a900473ffffffffffffffffffffffffffffffffffffffff1673ffffffffffffffffffffffffffffffffffffffff1673ffffffffffffffffffffffffffffffffffffffff168152602001600182018054610e9a90614906565b80601f0160208091040260200160405190810160405280929190818152602001828054610ec690614906565b8015610f135780601f10610ee857610100808354040283529160200191610f13565b820191906000526020600020905b815481529060010190602001808311610ef657829003601f168201915b50505050508152602001600282018054610f2c90614906565b80601f0160208091040260200160405190810160405280929190818152602001828054610f5890614906565b8015610fa55780601f10610f7a57610100808354040283529160200191610fa5565b820191906000526020600020905b815481529060010190602001808311610f8857829003601f168201915b5050505050815260200160038201548152602001600482015481526020016005820160009054906101000a900460ff16151515158152602001600682015481525050905090565b6040518060e001604052803373ffffffffffffffffffffffffffffffffffffffff168152602001838152602001828152602001600081526020016000815260200160011515815260200142815250600a60003373ffffffffffffffffffffffffffffffffffffffff1673ffffffffffffffffffffffffffffffffffffffff16815260200190815260200160002060008201518160000160006101000a81548173ffffffffffffffffffffffffffffffffffffffff021916908373ffffffffffffffffffffffffffffffffffffffff16021790555060208201518160010190816110d59190614e4a565b5060408201518160020190816110eb9190614e4a565b50606082015181600301556080820151816004015560a08201518160050160006101000a81548160ff02191690831515021790555060c08201518160060155905050600c339080600181540180825580915050600190039060005260206000200160009091909190916101000a81548173ffffffffffffffffffffffffffffffffffffffff021916908373ffffffffffffffffffffffffffffffffffffffff1602179055505050565b6000600760009054906101000a900473ffffffffffffffffffffffffffffffffffffffff16905090565b6060600180546111cd90614906565b80601f01602080910402602001604051908101604052809291908181526020018280546111f990614906565b80156112465780601f1061121b57610100808354040283529160200191611246565b820191906000526020600020905b81548152906001019060200180831161122957829003601f168201915b5050505050905090565b61126261125b61249a565b8383612a76565b5050565b61126e613a2c565b60008290506000600b826040516112859190614f58565b9081526020016040518091039020604051806101000160405290816000820180546112af90614906565b80601f01602080910402602001604051908101604052809291908181526020018280546112db90614906565b80156113285780601f106112fd57610100808354040283529160200191611328565b820191906000526020600020905b81548152906001019060200180831161130b57829003601f168201915b505050505081526020016001820160009054906101000a900473ffffffffffffffffffffffffffffffffffffffff1673ffffffffffffffffffffffffffffffffffffffff1673ffffffffffffffffffffffffffffffffffffffff16815260200160028201805461139790614906565b80601f01602080910402602001604051908101604052809291908181526020018280546113c390614906565b80156114105780601f106113e557610100808354040283529160200191611410565b820191906000526020600020905b8154815290600101906020018083116113f357829003601f168201915b505050505081526020016003820154815260200160048201805461143390614906565b80601f016020809104026020016040519081016040528092919081815260200182805461145f90614906565b80156114ac5780601f10611481576101008083540402835291602001916114ac565b820191906000526020600020905b81548152906001019060200180831161148f57829003601f168201915b505050505081526020016005820160009054906101000a900460ff161515151581526020016006820180546114e090614906565b80601f016020809104026020016040519081016040528092919081815260200182805461150c90614906565b80156115595780601f1061152e57610100808354040283529160200191611559565b820191906000526020600020905b81548152906001019060200180831161153c57829003601f168201915b5050505050815260200160078201548152505090508060a0015161159857604051806040016040528082815260200160001515815250925050506115b5565b604051806040016040528082815260200160011515815250925050505b919050565b6115cb6115c561249a565b8361255b565b61160a576040517f08c379a000000000000000000000000000000000000000000000000000000000815260040161160190614acd565b60405180910390fd5b61161684848484612be2565b50505050565b6060819050919050565b606061163182612c3e565b9050919050565b600a60003373ffffffffffffffffffffffffffffffffffffffff1673ffffffffffffffffffffffffffffffffffffffff16815260200190815260200160002060050160009054906101000a900460ff1661169157600080fd5b600061169d6008612d50565b90506116a96008612d5e565b6116b38382612d74565b6116bd8183612d92565b505050565b600a60003373ffffffffffffffffffffffffffffffffffffffff1673ffffffffffffffffffffffffffffffffffffffff16815260200190815260200160002060050160009054906101000a900460ff1661171b57600080fd5b62278d00600a60003373ffffffffffffffffffffffffffffffffffffffff1673ffffffffffffffffffffffffffffffffffffffff168152602001908152602001600020600601544261176d9190614f6f565b11156117ae576040517f08c379a00000000000000000000000000000000000000000000000000000000081526004016117a590615015565b60405180910390fd5b600083905060006040518061010001604052808781526020013373ffffffffffffffffffffffffffffffffffffffff1681526020018381526020016117f36008612d50565b8152602001858152602001600115158152602001848152602001428152509050600960003373ffffffffffffffffffffffffffffffffffffffff1673ffffffffffffffffffffffffffffffffffffffff16815260200190815260200160002081908060018154018082558091505060019003906000526020600020906008020160009091909190915060008201518160000190816118919190614e4a565b5060208201518160010160006101000a81548173ffffffffffffffffffffffffffffffffffffffff021916908373ffffffffffffffffffffffffffffffffffffffff16021790555060408201518160020190816118ee9190615090565b5060608201518160030155608082015181600401908161190e9190614e4a565b5060a08201518160050160006101000a81548160ff02191690831515021790555060c08201518160060190816119449190614e4a565b5060e08201518160070155505080600b836040516119629190614f58565b908152602001604051809103902060008201518160000190816119859190614e4a565b5060208201518160010160006101000a81548173ffffffffffffffffffffffffffffffffffffffff021916908373ffffffffffffffffffffffffffffffffffffffff16021790555060408201518160020190816119e29190615090565b50606082015181600301556080820151816004019081611a029190614e4a565b5060a08201518160050160006101000a81548160ff02191690831515021790555060c0820151816006019081611a389190614e4a565b5060e08201518160070155905050611a4f33612dff565b611a593385611638565b7f071608f607259922bdbf0ba830be1b289117e9d55f0d1f754b368315a3cd84da338342604051611a8c939291906151ac565b60405180910390a1505050505050565b600a60003373ffffffffffffffffffffffffffffffffffffffff1673ffffffffffffffffffffffffffffffffffffffff16815260200190815260200160002060050160009054906101000a900460ff16611af557600080fd5b6000600a60003373ffffffffffffffffffffffffffffffffffffffff1673ffffffffffffffffffffffffffffffffffffffff1681526020019081526020016000206004015466038d7ea4c68000611b4c9190614c5c565b9050803414611b5a57600080fd5b42600a60003373ffffffffffffffffffffffffffffffffffffffff1673ffffffffffffffffffffffffffffffffffffffff16815260200190815260200160002060060181905550611ba9612f42565b50565b6060600a60003373ffffffffffffffffffffffffffffffffffffffff1673ffffffffffffffffffffffffffffffffffffffff16815260200190815260200160002060050160009054906101000a900460ff16611c0757600080fd5b600960003373ffffffffffffffffffffffffffffffffffffffff1673ffffffffffffffffffffffffffffffffffffffff168152602001908152602001600020805480602002602001604051908101604052809291908181526020016000905b82821015611f66578382906000526020600020906008020160405180610100016040529081600082018054611c9a90614906565b80601f0160208091040260200160405190810160405280929190818152602001828054611cc690614906565b8015611d135780601f10611ce857610100808354040283529160200191611d13565b820191906000526020600020905b815481529060010190602001808311611cf657829003601f168201915b505050505081526020016001820160009054906101000a900473ffffffffffffffffffffffffffffffffffffffff1673ffffffffffffffffffffffffffffffffffffffff1673ffffffffffffffffffffffffffffffffffffffff168152602001600282018054611d8290614906565b80601f0160208091040260200160405190810160405280929190818152602001828054611dae90614906565b8015611dfb5780601f10611dd057610100808354040283529160200191611dfb565b820191906000526020600020905b815481529060010190602001808311611dde57829003601f168201915b5050505050815260200160038201548152602001600482018054611e1e90614906565b80601f0160208091040260200160405190810160405280929190818152602001828054611e4a90614906565b8015611e975780601f10611e6c57610100808354040283529160200191611e97565b820191906000526020600020905b815481529060010190602001808311611e7a57829003601f168201915b505050505081526020016005820160009054906101000a900460ff16151515158152602001600682018054611ecb90614906565b80601f0160208091040260200160405190810160405280929190818152602001828054611ef790614906565b8015611f445780601f10611f1957610100808354040283529160200191611f44565b820191906000526020600020905b815481529060010190602001808311611f2757829003601f168201915b5050505050815260200160078201548152505081526020019060010190611c66565b50505050905090565b6000600560008473ffffffffffffffffffffffffffffffffffffffff1673ffffffffffffffffffffffffffffffffffffffff16815260200190815260200160002060008373ffffffffffffffffffffffffffffffffffffffff1673ffffffffffffffffffffffffffffffffffffffff16815260200190815260200160002060009054906101000a900460ff16905092915050565b61200b6128e9565b600073ffffffffffffffffffffffffffffffffffffffff168173ffffffffffffffffffffffffffffffffffffffff160361207a576040517f08c379a00000000000000000000000000000000000000000000000000000000081526004016120719061525c565b60405180910390fd5b612083816129b0565b50565b61208e613a4e565b600a60003373ffffffffffffffffffffffffffffffffffffffff1673ffffffffffffffffffffffffffffffffffffffff16815260200190815260200160002060050160009054906101000a900460ff166120e757600080fd5b600b826040516120f79190614f58565b90815260200160405180910390206040518061010001604052908160008201805461212190614906565b80601f016020809104026020016040519081016040528092919081815260200182805461214d90614906565b801561219a5780601f1061216f5761010080835404028352916020019161219a565b820191906000526020600020905b81548152906001019060200180831161217d57829003601f168201915b505050505081526020016001820160009054906101000a900473ffffffffffffffffffffffffffffffffffffffff1673ffffffffffffffffffffffffffffffffffffffff1673ffffffffffffffffffffffffffffffffffffffff16815260200160028201805461220990614906565b80601f016020809104026020016040519081016040528092919081815260200182805461223590614906565b80156122825780601f1061225757610100808354040283529160200191612282565b820191906000526020600020905b81548152906001019060200180831161226557829003601f168201915b50505050508152602001600382015481526020016004820180546122a590614906565b80601f01602080910402602001604051908101604052809291908181526020018280546122d190614906565b801561231e5780601f106122f35761010080835404028352916020019161231e565b820191906000526020600020905b81548152906001019060200180831161230157829003601f168201915b505050505081526020016005820160009054906101000a900460ff1615151515815260200160068201805461235290614906565b80601f016020809104026020016040519081016040528092919081815260200182805461237e90614906565b80156123cb5780601f106123a0576101008083540402835291602001916123cb565b820191906000526020600020905b8154815290600101906020018083116123ae57829003601f168201915b505050505081526020016007820154815250509050919050565b60007f01ffc9a7000000000000000000000000000000000000000000000000000000007bffffffffffffffffffffffffffffffffffffffffffffffffffffffff1916827bffffffffffffffffffffffffffffffffffffffffffffffffffffffff1916149050919050565b61245881612fe5565b612497576040517f08c379a000000000000000000000000000000000000000000000000000000000815260040161248e90614b7b565b60405180910390fd5b50565b600033905090565b816004600083815260200190815260200160002060006101000a81548173ffffffffffffffffffffffffffffffffffffffff021916908373ffffffffffffffffffffffffffffffffffffffff160217905550808273ffffffffffffffffffffffffffffffffffffffff1661251583610b21565b73ffffffffffffffffffffffffffffffffffffffff167f8c5be1e5ebec7d5bd14f71427d1e84f3dd0314c0f7b2291e5b200ac8c7c3b92560405160405180910390a45050565b60008061256783610b21565b90508073ffffffffffffffffffffffffffffffffffffffff168473ffffffffffffffffffffffffffffffffffffffff1614806125a957506125a88185611f6f565b5b806125e757508373ffffffffffffffffffffffffffffffffffffffff166125cf84610829565b73ffffffffffffffffffffffffffffffffffffffff16145b91505092915050565b8273ffffffffffffffffffffffffffffffffffffffff1661261082610b21565b73ffffffffffffffffffffffffffffffffffffffff1614612666576040517f08c379a000000000000000000000000000000000000000000000000000000000815260040161265d906152ee565b60405180910390fd5b600073ffffffffffffffffffffffffffffffffffffffff168273ffffffffffffffffffffffffffffffffffffffff16036126d5576040517f08c379a00000000000000000000000000000000000000000000000000000000081526004016126cc90615380565b60405180910390fd5b6126e28383836001613026565b8273ffffffffffffffffffffffffffffffffffffffff1661270282610b21565b73ffffffffffffffffffffffffffffffffffffffff1614612758576040517f08c379a000000000000000000000000000000000000000000000000000000000815260040161274f906152ee565b60405180910390fd5b6004600082815260200190815260200160002060006101000a81549073ffffffffffffffffffffffffffffffffffffffff02191690556001600360008573ffffffffffffffffffffffffffffffffffffffff1673ffffffffffffffffffffffffffffffffffffffff168152602001908152602001600020600082825403925050819055506001600360008473ffffffffffffffffffffffffffffffffffffffff1673ffffffffffffffffffffffffffffffffffffffff16815260200190815260200160002060008282540192505081905550816002600083815260200190815260200160002060006101000a81548173ffffffffffffffffffffffffffffffffffffffff021916908373ffffffffffffffffffffffffffffffffffffffff160217905550808273ffffffffffffffffffffffffffffffffffffffff168473ffffffffffffffffffffffffffffffffffffffff167fddf252ad1be2c89b69c2b068fc378daa952ba7f163c4a11628f55a4df523b3ef60405160405180910390a46128e4838383600161314c565b505050565b6128f161249a565b73ffffffffffffffffffffffffffffffffffffffff1661290f611194565b73ffffffffffffffffffffffffffffffffffffffff1614612965576040517f08c379a000000000000000000000000000000000000000000000000000000000815260040161295c906153ec565b60405180910390fd5b565b61297081613152565b50565b60006002600083815260200190815260200160002060009054906101000a900473ffffffffffffffffffffffffffffffffffffffff169050919050565b6000600760009054906101000a900473ffffffffffffffffffffffffffffffffffffffff16905081600760006101000a81548173ffffffffffffffffffffffffffffffffffffffff021916908373ffffffffffffffffffffffffffffffffffffffff1602179055508173ffffffffffffffffffffffffffffffffffffffff168173ffffffffffffffffffffffffffffffffffffffff167f8be0079c531659141344cd1fd0a4f28419497f9722a3daafe3b4186f6b6457e060405160405180910390a35050565b8173ffffffffffffffffffffffffffffffffffffffff168373ffffffffffffffffffffffffffffffffffffffff1603612ae4576040517f08c379a0000000000000000000000000000000000000000000000000000000008152600401612adb90615458565b60405180910390fd5b80600560008573ffffffffffffffffffffffffffffffffffffffff1673ffffffffffffffffffffffffffffffffffffffff16815260200190815260200160002060008473ffffffffffffffffffffffffffffffffffffffff1673ffffffffffffffffffffffffffffffffffffffff16815260200190815260200160002060006101000a81548160ff0219169083151502179055508173ffffffffffffffffffffffffffffffffffffffff168373ffffffffffffffffffffffffffffffffffffffff167f17307eab39ab6107e8899845ad3d59bd9653f200f220920489ca2b5937696c3183604051612bd59190613bbc565b60405180910390a3505050565b612bed8484846125f0565b612bf9848484846131a5565b612c38576040517f08c379a0000000000000000000000000000000000000000000000000000000008152600401612c2f906154ea565b60405180910390fd5b50505050565b6060612c498261244f565b6000600660008481526020019081526020016000208054612c6990614906565b80601f0160208091040260200160405190810160405280929190818152602001828054612c9590614906565b8015612ce25780601f10612cb757610100808354040283529160200191612ce2565b820191906000526020600020905b815481529060010190602001808311612cc557829003601f168201915b505050505090506000612cf361332c565b90506000815103612d08578192505050612d4b565b600082511115612d3d578082604051602001612d25929190615546565b60405160208183030381529060405292505050612d4b565b612d4684613343565b925050505b919050565b600081600001549050919050565b6001816000016000828254019250508190555050565b612d8e8282604051806020016040528060008152506133ab565b5050565b612d9b82612fe5565b612dda576040517f08c379a0000000000000000000000000000000000000000000000000000000008152600401612dd1906155dc565b60405180910390fd5b80600660008481526020019081526020016000209081612dfa9190614e4a565b505050565b600a60008273ffffffffffffffffffffffffffffffffffffffff1673ffffffffffffffffffffffffffffffffffffffff1681526020019081526020016000206003016000815480929190612e52906155fc565b9190505550600a60008273ffffffffffffffffffffffffffffffffffffffff1673ffffffffffffffffffffffffffffffffffffffff1681526020019081526020016000206004016000815480929190612eaa906155fc565b9190505550600960008273ffffffffffffffffffffffffffffffffffffffff1673ffffffffffffffffffffffffffffffffffffffff16815260200190815260200160002080549050600a60008373ffffffffffffffffffffffffffffffffffffffff1673ffffffffffffffffffffffffffffffffffffffff1681526020019081526020016000206003015414612f3f57600080fd5b50565b600a60003373ffffffffffffffffffffffffffffffffffffffff1673ffffffffffffffffffffffffffffffffffffffff16815260200190815260200160002060050160009054906101000a900460ff16612f9b57600080fd5b6000600a60003373ffffffffffffffffffffffffffffffffffffffff1673ffffffffffffffffffffffffffffffffffffffff16815260200190815260200160002060040181905550565b60008073ffffffffffffffffffffffffffffffffffffffff1661300783612973565b73ffffffffffffffffffffffffffffffffffffffff1614159050919050565b600181111561314657600073ffffffffffffffffffffffffffffffffffffffff168473ffffffffffffffffffffffffffffffffffffffff16146130ba5780600360008673ffffffffffffffffffffffffffffffffffffffff1673ffffffffffffffffffffffffffffffffffffffff16815260200190815260200160002060008282546130b29190614f6f565b925050819055505b600073ffffffffffffffffffffffffffffffffffffffff168373ffffffffffffffffffffffffffffffffffffffff16146131455780600360008573ffffffffffffffffffffffffffffffffffffffff1673ffffffffffffffffffffffffffffffffffffffff168152602001908152602001600020600082825461313d9190615644565b925050819055505b5b50505050565b50505050565b61315b81613406565b600060066000838152602001908152602001600020805461317b90614906565b9050146131a2576006600082815260200190815260200160002060006131a19190613aab565b5b50565b60006131c68473ffffffffffffffffffffffffffffffffffffffff16613554565b1561331f578373ffffffffffffffffffffffffffffffffffffffff1663150b7a026131ef61249a565b8786866040518563ffffffff1660e01b81526004016132119493929190615678565b6020604051808303816000875af192505050801561324d57506040513d601f19601f8201168201806040525081019061324a91906156d9565b60015b6132cf573d806000811461327d576040519150601f19603f3d011682016040523d82523d6000602084013e613282565b606091505b5060008151036132c7576040517f08c379a00000000000000000000000000000000000000000000000000000000081526004016132be906154ea565b60405180910390fd5b805181602001fd5b63150b7a0260e01b7bffffffffffffffffffffffffffffffffffffffffffffffffffffffff1916817bffffffffffffffffffffffffffffffffffffffffffffffffffffffff191614915050613324565b600190505b949350505050565b606060405180602001604052806000815250905090565b606061334e8261244f565b600061335861332c565b9050600081511161337857604051806020016040528060008152506133a3565b8061338284613577565b604051602001613393929190615546565b6040516020818303038152906040525b915050919050565b6133b58383613645565b6133c260008484846131a5565b613401576040517f08c379a00000000000000000000000000000000000000000000000000000000081526004016133f8906154ea565b60405180910390fd5b505050565b600061341182610b21565b9050613421816000846001613026565b61342a82610b21565b90506004600083815260200190815260200160002060006101000a81549073ffffffffffffffffffffffffffffffffffffffff02191690556001600360008373ffffffffffffffffffffffffffffffffffffffff1673ffffffffffffffffffffffffffffffffffffffff168152602001908152602001600020600082825403925050819055506002600083815260200190815260200160002060006101000a81549073ffffffffffffffffffffffffffffffffffffffff021916905581600073ffffffffffffffffffffffffffffffffffffffff168273ffffffffffffffffffffffffffffffffffffffff167fddf252ad1be2c89b69c2b068fc378daa952ba7f163c4a11628f55a4df523b3ef60405160405180910390a461355081600084600161314c565b5050565b6000808273ffffffffffffffffffffffffffffffffffffffff163b119050919050565b60606000600161358684613862565b01905060008167ffffffffffffffff8111156135a5576135a461405b565b5b6040519080825280601f01601f1916602001820160405280156135d75781602001600182028036833780820191505090505b509050600082602001820190505b60011561363a578080600190039150507f3031323334353637383961626364656600000000000000000000000000000000600a86061a8153600a858161362e5761362d615706565b5b049450600085036135e5575b819350505050919050565b600073ffffffffffffffffffffffffffffffffffffffff168273ffffffffffffffffffffffffffffffffffffffff16036136b4576040517f08c379a00000000000000000000000000000000000000000000000000000000081526004016136ab90615781565b60405180910390fd5b6136bd81612fe5565b156136fd576040517f08c379a00000000000000000000000000000000000000000000000000000000081526004016136f4906157ed565b60405180910390fd5b61370b600083836001613026565b61371481612fe5565b15613754576040517f08c379a000000000000000000000000000000000000000000000000000000000815260040161374b906157ed565b60405180910390fd5b6001600360008473ffffffffffffffffffffffffffffffffffffffff1673ffffffffffffffffffffffffffffffffffffffff16815260200190815260200160002060008282540192505081905550816002600083815260200190815260200160002060006101000a81548173ffffffffffffffffffffffffffffffffffffffff021916908373ffffffffffffffffffffffffffffffffffffffff160217905550808273ffffffffffffffffffffffffffffffffffffffff16600073ffffffffffffffffffffffffffffffffffffffff167fddf252ad1be2c89b69c2b068fc378daa952ba7f163c4a11628f55a4df523b3ef60405160405180910390a461385e60008383600161314c565b5050565b600080600090507a184f03e93ff9f4daa797ed6e38ed64bf6a1f01000000000000000083106138c0577a184f03e93ff9f4daa797ed6e38ed64bf6a1f01000000000000000083816138b6576138b5615706565b5b0492506040810190505b6d04ee2d6d415b85acef810000000083106138fd576d04ee2d6d415b85acef810000000083816138f3576138f2615706565b5b0492506020810190505b662386f26fc10000831061392c57662386f26fc10000838161392257613921615706565b5b0492506010810190505b6305f5e1008310613955576305f5e100838161394b5761394a615706565b5b0492506008810190505b612710831061397a5761271083816139705761396f615706565b5b0492506004810190505b6064831061399d576064838161399357613992615706565b5b0492506002810190505b600a83106139ac576001810190505b80915050919050565b6040518060400160405280600290602082028036833780820191505090505090565b6040518060e00160405280600073ffffffffffffffffffffffffffffffffffffffff16815260200160608152602001606081526020016000815260200160008152602001600015158152602001600081525090565b6040518060400160405280613a3f613a4e565b81526020016000151581525090565b60405180610100016040528060608152602001600073ffffffffffffffffffffffffffffffffffffffff16815260200160608152602001600081526020016060815260200160001515815260200160608152602001600081525090565b508054613ab790614906565b6000825580601f10613ac95750613ae8565b601f016020900490600052602060002090810190613ae79190613aeb565b5b50565b5b80821115613b04576000816000905550600101613aec565b5090565b6000604051905090565b600080fd5b600080fd5b60007fffffffff0000000000000000000000000000000000000000000000000000000082169050919050565b613b5181613b1c565b8114613b5c57600080fd5b50565b600081359050613b6e81613b48565b92915050565b600060208284031215613b8a57613b89613b12565b5b6000613b9884828501613b5f565b91505092915050565b60008115159050919050565b613bb681613ba1565b82525050565b6000602082019050613bd16000830184613bad565b92915050565b600081519050919050565b600082825260208201905092915050565b60005b83811015613c11578082015181840152602081019050613bf6565b60008484015250505050565b6000601f19601f8301169050919050565b6000613c3982613bd7565b613c438185613be2565b9350613c53818560208601613bf3565b613c5c81613c1d565b840191505092915050565b60006020820190508181036000830152613c818184613c2e565b905092915050565b6000819050919050565b613c9c81613c89565b8114613ca757600080fd5b50565b600081359050613cb981613c93565b92915050565b600060208284031215613cd557613cd4613b12565b5b6000613ce384828501613caa565b91505092915050565b600073ffffffffffffffffffffffffffffffffffffffff82169050919050565b6000613d1782613cec565b9050919050565b613d2781613d0c565b82525050565b6000602082019050613d426000830184613d1e565b92915050565b613d5181613d0c565b8114613d5c57600080fd5b50565b600081359050613d6e81613d48565b92915050565b60008060408385031215613d8b57613d8a613b12565b5b6000613d9985828601613d5f565b9250506020613daa85828601613caa565b9150509250929050565b600080600060608486031215613dcd57613dcc613b12565b5b6000613ddb86828701613d5f565b9350506020613dec86828701613d5f565b9250506040613dfd86828701613caa565b9150509250925092565b600060208284031215613e1d57613e1c613b12565b5b6000613e2b84828501613d5f565b91505092915050565b613e3d81613c89565b82525050565b6000602082019050613e586000830184613e34565b92915050565b600060029050919050565b600081905092915050565b6000819050919050565b613e8781613c89565b82525050565b6000613e998383613e7e565b60208301905092915050565b6000602082019050919050565b613ebb81613e5e565b613ec58184613e69565b9250613ed082613e74565b8060005b83811015613f01578151613ee88782613e8d565b9650613ef383613ea5565b925050600181019050613ed4565b505050505050565b6000604082019050613f1e6000830184613eb2565b92915050565b613f2d81613d0c565b82525050565b600082825260208201905092915050565b6000613f4f82613bd7565b613f598185613f33565b9350613f69818560208601613bf3565b613f7281613c1d565b840191505092915050565b613f8681613ba1565b82525050565b600060e083016000830151613fa46000860182613f24565b5060208301518482036020860152613fbc8282613f44565b91505060408301518482036040860152613fd68282613f44565b9150506060830151613feb6060860182613e7e565b506080830151613ffe6080860182613e7e565b5060a083015161401160a0860182613f7d565b5060c083015161402460c0860182613e7e565b508091505092915050565b600060208201905081810360008301526140498184613f8c565b905092915050565b600080fd5b600080fd5b7f4e487b7100000000000000000000000000000000000000000000000000000000600052604160045260246000fd5b61409382613c1d565b810181811067ffffffffffffffff821117156140b2576140b161405b565b5b80604052505050565b60006140c5613b08565b90506140d1828261408a565b919050565b600067ffffffffffffffff8211156140f1576140f061405b565b5b6140fa82613c1d565b9050602081019050919050565b82818337600083830152505050565b6000614129614124846140d6565b6140bb565b90508281526020810184848401111561414557614144614056565b5b614150848285614107565b509392505050565b600082601f83011261416d5761416c614051565b5b813561417d848260208601614116565b91505092915050565b6000806040838503121561419d5761419c613b12565b5b600083013567ffffffffffffffff8111156141bb576141ba613b17565b5b6141c785828601614158565b925050602083013567ffffffffffffffff8111156141e8576141e7613b17565b5b6141f485828601614158565b9150509250929050565b61420781613ba1565b811461421257600080fd5b50565b600081359050614224816141fe565b92915050565b6000806040838503121561424157614240613b12565b5b600061424f85828601613d5f565b925050602061426085828601614215565b9150509250929050565b6000602082840312156142805761427f613b12565b5b600082013567ffffffffffffffff81111561429e5761429d613b17565b5b6142aa84828501614158565b91505092915050565b600081519050919050565b600082825260208201905092915050565b60006142da826142b3565b6142e481856142be565b93506142f4818560208601613bf3565b6142fd81613c1d565b840191505092915050565b60006101008301600083015184820360008601526143268282613f44565b915050602083015161433b6020860182613f24565b506040830151848203604086015261435382826142cf565b91505060608301516143686060860182613e7e565b50608083015184820360808601526143808282613f44565b91505060a083015161439560a0860182613f7d565b5060c083015184820360c08601526143ad8282613f44565b91505060e08301516143c260e0860182613e7e565b508091505092915050565b600060408301600083015184820360008601526143ea8282614308565b91505060208301516143ff6020860182613f7d565b508091505092915050565b6000602082019050818103600083015261442481846143cd565b905092915050565b600067ffffffffffffffff8211156144475761444661405b565b5b61445082613c1d565b9050602081019050919050565b600061447061446b8461442c565b6140bb565b90508281526020810184848401111561448c5761448b614056565b5b614497848285614107565b509392505050565b600082601f8301126144b4576144b3614051565b5b81356144c484826020860161445d565b91505092915050565b600080600080608085870312156144e7576144e6613b12565b5b60006144f587828801613d5f565b945050602061450687828801613d5f565b935050604061451787828801613caa565b925050606085013567ffffffffffffffff81111561453857614537613b17565b5b6145448782880161449f565b91505092959194509250565b60006020828403121561456657614565613b12565b5b600082013567ffffffffffffffff81111561458457614583613b17565b5b6145908482850161449f565b91505092915050565b600080604083850312156145b0576145af613b12565b5b60006145be85828601613d5f565b925050602083013567ffffffffffffffff8111156145df576145de613b17565b5b6145eb85828601614158565b9150509250929050565b6000806000806080858703121561460f5761460e613b12565b5b600085013567ffffffffffffffff81111561462d5761462c613b17565b5b61463987828801614158565b945050602085013567ffffffffffffffff81111561465a57614659613b17565b5b61466687828801614158565b935050604085013567ffffffffffffffff81111561468757614686613b17565b5b61469387828801614158565b925050606085013567ffffffffffffffff8111156146b4576146b3613b17565b5b6146c087828801614158565b91505092959194509250565b600081519050919050565b600082825260208201905092915050565b6000819050602082019050919050565b60006147048383614308565b905092915050565b6000602082019050919050565b6000614724826146cc565b61472e81856146d7565b935083602082028501614740856146e8565b8060005b8581101561477c578484038952815161475d85826146f8565b94506147688361470c565b925060208a01995050600181019050614744565b50829750879550505050505092915050565b600060208201905081810360008301526147a88184614719565b905092915050565b600080604083850312156147c7576147c6613b12565b5b60006147d585828601613d5f565b92505060206147e685828601613d5f565b9150509250929050565b600061010083016000830151848203600086015261480e8282613f44565b91505060208301516148236020860182613f24565b506040830151848203604086015261483b82826142cf565b91505060608301516148506060860182613e7e565b50608083015184820360808601526148688282613f44565b91505060a083015161487d60a0860182613f7d565b5060c083015184820360c08601526148958282613f44565b91505060e08301516148aa60e0860182613e7e565b508091505092915050565b600060208201905081810360008301526148cf81846147f0565b905092915050565b7f4e487b7100000000000000000000000000000000000000000000000000000000600052602260045260246000fd5b6000600282049050600182168061491e57607f821691505b602082108103614931576149306148d7565b5b50919050565b7f4552433732313a20617070726f76616c20746f2063757272656e74206f776e6560008201527f7200000000000000000000000000000000000000000000000000000000000000602082015250565b6000614993602183613be2565b915061499e82614937565b604082019050919050565b600060208201905081810360008301526149c281614986565b9050919050565b7f4552433732313a20617070726f76652063616c6c6572206973206e6f7420746f60008201527f6b656e206f776e6572206f7220617070726f76656420666f7220616c6c000000602082015250565b6000614a25603d83613be2565b9150614a30826149c9565b604082019050919050565b60006020820190508181036000830152614a5481614a18565b9050919050565b7f4552433732313a2063616c6c6572206973206e6f7420746f6b656e206f776e6560008201527f72206f7220617070726f76656400000000000000000000000000000000000000602082015250565b6000614ab7602d83613be2565b9150614ac282614a5b565b604082019050919050565b60006020820190508181036000830152614ae681614aaa565b9050919050565b600081519050614afc81613d48565b92915050565b600060208284031215614b1857614b17613b12565b5b6000614b2684828501614aed565b91505092915050565b7f4552433732313a20696e76616c696420746f6b656e2049440000000000000000600082015250565b6000614b65601883613be2565b9150614b7082614b2f565b602082019050919050565b60006020820190508181036000830152614b9481614b58565b9050919050565b7f4552433732313a2061646472657373207a65726f206973206e6f74206120766160008201527f6c6964206f776e65720000000000000000000000000000000000000000000000602082015250565b6000614bf7602983613be2565b9150614c0282614b9b565b604082019050919050565b60006020820190508181036000830152614c2681614bea565b9050919050565b7f4e487b7100000000000000000000000000000000000000000000000000000000600052601160045260246000fd5b6000614c6782613c89565b9150614c7283613c89565b9250828202614c8081613c89565b91508282048414831517614c9757614c96614c2d565b5b5092915050565b60008190508160005260206000209050919050565b60006020601f8301049050919050565b600082821b905092915050565b600060088302614d007fffffffffffffffffffffffffffffffffffffffffffffffffffffffffffffffff82614cc3565b614d0a8683614cc3565b95508019841693508086168417925050509392505050565b6000819050919050565b6000614d47614d42614d3d84613c89565b614d22565b613c89565b9050919050565b6000819050919050565b614d6183614d2c565b614d75614d6d82614d4e565b848454614cd0565b825550505050565b600090565b614d8a614d7d565b614d95818484614d58565b505050565b5b81811015614db957614dae600082614d82565b600181019050614d9b565b5050565b601f821115614dfe57614dcf81614c9e565b614dd884614cb3565b81016020851015614de7578190505b614dfb614df385614cb3565b830182614d9a565b50505b505050565b600082821c905092915050565b6000614e2160001984600802614e03565b1980831691505092915050565b6000614e3a8383614e10565b9150826002028217905092915050565b614e5382613bd7565b67ffffffffffffffff811115614e6c57614e6b61405b565b5b614e768254614906565b614e81828285614dbd565b600060209050601f831160018114614eb45760008415614ea2578287015190505b614eac8582614e2e565b865550614f14565b601f198416614ec286614c9e565b60005b82811015614eea57848901518255600182019150602085019450602081019050614ec5565b86831015614f075784890151614f03601f891682614e10565b8355505b6001600288020188555050505b505050505050565b600081905092915050565b6000614f32826142b3565b614f3c8185614f1c565b9350614f4c818560208601613bf3565b80840191505092915050565b6000614f648284614f27565b915081905092915050565b6000614f7a82613c89565b9150614f8583613c89565b9250828203905081811115614f9d57614f9c614c2d565b5b92915050565b7f4b696e646c7920706179206265666f7265207369676e696e67206d6f7265206460008201527f6f63730000000000000000000000000000000000000000000000000000000000602082015250565b6000614fff602383613be2565b915061500a82614fa3565b604082019050919050565b6000602082019050818103600083015261502e81614ff2565b9050919050565b60008190508160005260206000209050919050565b601f82111561508b5761505c81615035565b61506584614cb3565b81016020851015615074578190505b61508861508085614cb3565b830182614d9a565b50505b505050565b615099826142b3565b67ffffffffffffffff8111156150b2576150b161405b565b5b6150bc8254614906565b6150c782828561504a565b600060209050601f8311600181146150fa57600084156150e8578287015190505b6150f28582614e2e565b86555061515a565b601f19841661510886615035565b60005b828110156151305784890151825560018201915060208501945060208101905061510b565b8683101561514d5784890151615149601f891682614e10565b8355505b6001600288020188555050505b505050505050565b600082825260208201905092915050565b600061517e826142b3565b6151888185615162565b9350615198818560208601613bf3565b6151a181613c1d565b840191505092915050565b60006060820190506151c16000830186613d1e565b81810360208301526151d38185615173565b90506151e26040830184613e34565b949350505050565b7f4f776e61626c653a206e6577206f776e657220697320746865207a65726f206160008201527f6464726573730000000000000000000000000000000000000000000000000000602082015250565b6000615246602683613be2565b9150615251826151ea565b604082019050919050565b6000602082019050818103600083015261527581615239565b9050919050565b7f4552433732313a207472616e736665722066726f6d20696e636f72726563742060008201527f6f776e6572000000000000000000000000000000000000000000000000000000602082015250565b60006152d8602583613be2565b91506152e38261527c565b604082019050919050565b60006020820190508181036000830152615307816152cb565b9050919050565b7f4552433732313a207472616e7366657220746f20746865207a65726f2061646460008201527f7265737300000000000000000000000000000000000000000000000000000000602082015250565b600061536a602483613be2565b91506153758261530e565b604082019050919050565b600060208201905081810360008301526153998161535d565b9050919050565b7f4f776e61626c653a2063616c6c6572206973206e6f7420746865206f776e6572600082015250565b60006153d6602083613be2565b91506153e1826153a0565b602082019050919050565b60006020820190508181036000830152615405816153c9565b9050919050565b7f4552433732313a20617070726f766520746f2063616c6c657200000000000000600082015250565b6000615442601983613be2565b915061544d8261540c565b602082019050919050565b6000602082019050818103600083015261547181615435565b9050919050565b7f4552433732313a207472616e7366657220746f206e6f6e20455243373231526560008201527f63656976657220696d706c656d656e7465720000000000000000000000000000602082015250565b60006154d4603283613be2565b91506154df82615478565b604082019050919050565b60006020820190508181036000830152615503816154c7565b9050919050565b600081905092915050565b600061552082613bd7565b61552a818561550a565b935061553a818560208601613bf3565b80840191505092915050565b60006155528285615515565b915061555e8284615515565b91508190509392505050565b7f45524337323155524953746f726167653a2055524920736574206f66206e6f6e60008201527f6578697374656e7420746f6b656e000000000000000000000000000000000000602082015250565b60006155c6602e83613be2565b91506155d18261556a565b604082019050919050565b600060208201905081810360008301526155f5816155b9565b9050919050565b600061560782613c89565b91507fffffffffffffffffffffffffffffffffffffffffffffffffffffffffffffffff820361563957615638614c2d565b5b600182019050919050565b600061564f82613c89565b915061565a83613c89565b925082820190508082111561567257615671614c2d565b5b92915050565b600060808201905061568d6000830187613d1e565b61569a6020830186613d1e565b6156a76040830185613e34565b81810360608301526156b98184615173565b905095945050505050565b6000815190506156d381613b48565b92915050565b6000602082840312156156ef576156ee613b12565b5b60006156fd848285016156c4565b91505092915050565b7f4e487b7100000000000000000000000000000000000000000000000000000000600052601260045260246000fd5b7f4552433732313a206d696e7420746f20746865207a65726f2061646472657373600082015250565b600061576b602083613be2565b915061577682615735565b602082019050919050565b6000602082019050818103600083015261579a8161575e565b9050919050565b7f4552433732313a20746f6b656e20616c7265616479206d696e74656400000000600082015250565b60006157d7601c83613be2565b91506157e2826157a1565b602082019050919050565b60006020820190508181036000830152615806816157ca565b905091905056fea26469706673582212202bb0ba9719e913e89b5929be9ea7544fa2cb93d5ed41347099d0ee41bbeec87364736f6c63430008110033",
  "linkReferences": {},
  "deployedLinkReferences": {}
}